{
  "_format": "hh-sol-artifact-1",
  "contractName": "MyNFT",
  "sourceName": "contracts/MyNFT.sol",
  "abi": [
    {
      "inputs": [],
      "stateMutability": "nonpayable",
      "type": "constructor"
    },
    {
      "anonymous": false,
      "inputs": [
        {
          "indexed": true,
          "internalType": "address",
          "name": "owner",
          "type": "address"
        },
        {
          "indexed": true,
          "internalType": "address",
          "name": "approved",
          "type": "address"
        },
        {
          "indexed": true,
          "internalType": "uint256",
          "name": "tokenId",
          "type": "uint256"
        }
      ],
      "name": "Approval",
      "type": "event"
    },
    {
      "anonymous": false,
      "inputs": [
        {
          "indexed": true,
          "internalType": "address",
          "name": "owner",
          "type": "address"
        },
        {
          "indexed": true,
          "internalType": "address",
          "name": "operator",
          "type": "address"
        },
        {
          "indexed": false,
          "internalType": "bool",
          "name": "approved",
          "type": "bool"
        }
      ],
      "name": "ApprovalForAll",
      "type": "event"
    },
    {
      "anonymous": false,
      "inputs": [
        {
          "indexed": true,
          "internalType": "address",
          "name": "from",
          "type": "address"
        },
        {
          "indexed": true,
          "internalType": "address",
          "name": "to",
          "type": "address"
        },
        {
          "indexed": true,
          "internalType": "uint256",
          "name": "tokenId",
          "type": "uint256"
        }
      ],
      "name": "Transfer",
      "type": "event"
    },
    {
      "inputs": [
        {
          "internalType": "address",
          "name": "to",
          "type": "address"
        },
        {
          "internalType": "uint256",
          "name": "tokenId",
          "type": "uint256"
        }
      ],
      "name": "approve",
      "outputs": [],
      "stateMutability": "nonpayable",
      "type": "function"
    },
    {
      "inputs": [
        {
          "internalType": "address",
          "name": "owner",
          "type": "address"
        }
      ],
      "name": "balanceOf",
      "outputs": [
        {
          "internalType": "uint256",
          "name": "",
          "type": "uint256"
        }
      ],
      "stateMutability": "view",
      "type": "function"
    },
    {
      "inputs": [],
      "name": "collectionName",
      "outputs": [
        {
          "internalType": "string",
          "name": "",
          "type": "string"
        }
      ],
      "stateMutability": "view",
      "type": "function"
    },
    {
      "inputs": [],
      "name": "collectionSymbol",
      "outputs": [
        {
          "internalType": "string",
          "name": "",
          "type": "string"
        }
      ],
      "stateMutability": "view",
      "type": "function"
    },
    {
      "inputs": [],
      "name": "createMyNFT",
      "outputs": [
        {
          "internalType": "uint256",
          "name": "",
          "type": "uint256"
        }
      ],
      "stateMutability": "nonpayable",
      "type": "function"
    },
    {
      "inputs": [
        {
          "internalType": "uint256",
          "name": "tokenId",
          "type": "uint256"
        }
      ],
      "name": "getApproved",
      "outputs": [
        {
          "internalType": "address",
          "name": "",
          "type": "address"
        }
      ],
      "stateMutability": "view",
      "type": "function"
    },
    {
      "inputs": [
        {
          "internalType": "address",
          "name": "owner",
          "type": "address"
        },
        {
          "internalType": "address",
          "name": "operator",
          "type": "address"
        }
      ],
      "name": "isApprovedForAll",
      "outputs": [
        {
          "internalType": "bool",
          "name": "",
          "type": "bool"
        }
      ],
      "stateMutability": "view",
      "type": "function"
    },
    {
      "inputs": [],
      "name": "name",
      "outputs": [
        {
          "internalType": "string",
          "name": "",
          "type": "string"
        }
      ],
      "stateMutability": "view",
      "type": "function"
    },
    {
      "inputs": [
        {
          "internalType": "uint256",
          "name": "tokenId",
          "type": "uint256"
        }
      ],
      "name": "ownerOf",
      "outputs": [
        {
          "internalType": "address",
          "name": "",
          "type": "address"
        }
      ],
      "stateMutability": "view",
      "type": "function"
    },
    {
      "inputs": [
        {
          "internalType": "uint256",
          "name": "tokenId",
          "type": "uint256"
        }
      ],
      "name": "pickFirstWord",
      "outputs": [
        {
          "internalType": "string",
          "name": "",
          "type": "string"
        }
      ],
      "stateMutability": "view",
      "type": "function"
    },
    {
      "inputs": [
        {
          "internalType": "uint256",
          "name": "tokenId",
          "type": "uint256"
        }
      ],
      "name": "pickSecondWord",
      "outputs": [
        {
          "internalType": "string",
          "name": "",
          "type": "string"
        }
      ],
      "stateMutability": "view",
      "type": "function"
    },
    {
      "inputs": [
        {
          "internalType": "uint256",
          "name": "tokenId",
          "type": "uint256"
        }
      ],
      "name": "pickThirdWord",
      "outputs": [
        {
          "internalType": "string",
          "name": "",
          "type": "string"
        }
      ],
      "stateMutability": "view",
      "type": "function"
    },
    {
      "inputs": [
        {
          "internalType": "address",
          "name": "from",
          "type": "address"
        },
        {
          "internalType": "address",
          "name": "to",
          "type": "address"
        },
        {
          "internalType": "uint256",
          "name": "tokenId",
          "type": "uint256"
        }
      ],
      "name": "safeTransferFrom",
      "outputs": [],
      "stateMutability": "nonpayable",
      "type": "function"
    },
    {
      "inputs": [
        {
          "internalType": "address",
          "name": "from",
          "type": "address"
        },
        {
          "internalType": "address",
          "name": "to",
          "type": "address"
        },
        {
          "internalType": "uint256",
          "name": "tokenId",
          "type": "uint256"
        },
        {
          "internalType": "bytes",
          "name": "data",
          "type": "bytes"
        }
      ],
      "name": "safeTransferFrom",
      "outputs": [],
      "stateMutability": "nonpayable",
      "type": "function"
    },
    {
      "inputs": [
        {
          "internalType": "address",
          "name": "operator",
          "type": "address"
        },
        {
          "internalType": "bool",
          "name": "approved",
          "type": "bool"
        }
      ],
      "name": "setApprovalForAll",
      "outputs": [],
      "stateMutability": "nonpayable",
      "type": "function"
    },
    {
      "inputs": [
        {
          "internalType": "bytes4",
          "name": "interfaceId",
          "type": "bytes4"
        }
      ],
      "name": "supportsInterface",
      "outputs": [
        {
          "internalType": "bool",
          "name": "",
          "type": "bool"
        }
      ],
      "stateMutability": "view",
      "type": "function"
    },
    {
      "inputs": [],
      "name": "symbol",
      "outputs": [
        {
          "internalType": "string",
          "name": "",
          "type": "string"
        }
      ],
      "stateMutability": "view",
      "type": "function"
    },
    {
      "inputs": [
        {
          "internalType": "uint256",
          "name": "tokenId",
          "type": "uint256"
        }
      ],
      "name": "tokenURI",
      "outputs": [
        {
          "internalType": "string",
          "name": "",
          "type": "string"
        }
      ],
      "stateMutability": "view",
      "type": "function"
    },
    {
      "inputs": [
        {
          "internalType": "address",
          "name": "from",
          "type": "address"
        },
        {
          "internalType": "address",
          "name": "to",
          "type": "address"
        },
        {
          "internalType": "uint256",
          "name": "tokenId",
          "type": "uint256"
        }
      ],
      "name": "transferFrom",
      "outputs": [],
      "stateMutability": "nonpayable",
      "type": "function"
    }
  ],
  "bytecode": "0x608060405260405180610160016040528061012f81526020016200425561012f9139600a908162000031919062000ae0565b506040518060e001604052806040518060400160405280600481526020017f466972650000000000000000000000000000000000000000000000000000000081525081526020016040518060400160405280600481526020017f57696e640000000000000000000000000000000000000000000000000000000081525081526020016040518060400160405280600481526020017f576176650000000000000000000000000000000000000000000000000000000081525081526020016040518060400160405280600581526020017f456172746800000000000000000000000000000000000000000000000000000081525081526020016040518060400160405280600781526020017f5468756e6465720000000000000000000000000000000000000000000000000081525081526020016040518060400160405280600581526020017f537061636500000000000000000000000000000000000000000000000000000081525081526020016040518060400160405280600481526020017f54696d6500000000000000000000000000000000000000000000000000000000815250815250600b906007620001ea92919062000779565b506040518060e001604052806040518060400160405280600581526020017f53776f726400000000000000000000000000000000000000000000000000000081525081526020016040518060400160405280600581526020017f537065617200000000000000000000000000000000000000000000000000000081525081526020016040518060400160405280600681526020017f536869656c64000000000000000000000000000000000000000000000000000081525081526020016040518060400160405280600681526020017f48616d6d6572000000000000000000000000000000000000000000000000000081525081526020016040518060400160405280600581526020017f536162657200000000000000000000000000000000000000000000000000000081525081526020016040518060400160405280600381526020017f417865000000000000000000000000000000000000000000000000000000000081525081526020016040518060400160405280600381526020017f426f770000000000000000000000000000000000000000000000000000000000815250815250600c906007620003a392919062000779565b506040518060e001604052806040518060400160405280600481526020017f4c6f72640000000000000000000000000000000000000000000000000000000081525081526020016040518060400160405280600481526020017f4b696e670000000000000000000000000000000000000000000000000000000081525081526020016040518060400160405280600781526020017f456d7065726f720000000000000000000000000000000000000000000000000081525081526020016040518060400160405280600981526020017f56656e657261626c65000000000000000000000000000000000000000000000081525081526020016040518060400160405280600881526020017f416e636573746f7200000000000000000000000000000000000000000000000081525081526020016040518060400160405280600581526020017f5361696e7400000000000000000000000000000000000000000000000000000081525081526020016040518060400160405280600381526020017f476f640000000000000000000000000000000000000000000000000000000000815250815250600d9060076200055c92919062000779565b503480156200056a57600080fd5b506040518060400160405280600581526020017f4d794e46540000000000000000000000000000000000000000000000000000008152506040518060400160405280600481526020017f4d4e4654000000000000000000000000000000000000000000000000000000008152508160009081620005e8919062000ae0565b508060019081620005fa919062000ae0565b5050506200060d6200064560201b60201c565b600890816200061d919062000ae0565b506200062e620006df60201b60201c565b600990816200063e919062000ae0565b5062000bc7565b6060600080546200065690620008cf565b80601f01602080910402602001604051908101604052809291908181526020018280546200068490620008cf565b8015620006d55780601f10620006a957610100808354040283529160200191620006d5565b820191906000526020600020905b815481529060010190602001808311620006b757829003601f168201915b5050505050905090565b606060018054620006f090620008cf565b80601f01602080910402602001604051908101604052809291908181526020018280546200071e90620008cf565b80156200076f5780601f1062000743576101008083540402835291602001916200076f565b820191906000526020600020905b8154815290600101906020018083116200075157829003601f168201915b5050505050905090565b828054828255906000526020600020908101928215620007c6579160200282015b82811115620007c5578251829081620007b4919062000ae0565b50916020019190600101906200079a565b5b509050620007d59190620007d9565b5090565b5b80821115620007fd5760008181620007f3919062000801565b50600101620007da565b5090565b5080546200080f90620008cf565b6000825580601f1062000823575062000844565b601f01602090049060005260206000209081019062000843919062000847565b5b50565b5b808211156200086257600081600090555060010162000848565b5090565b600081519050919050565b7f4e487b7100000000000000000000000000000000000000000000000000000000600052604160045260246000fd5b7f4e487b7100000000000000000000000000000000000000000000000000000000600052602260045260246000fd5b60006002820490506001821680620008e857607f821691505b602082108103620008fe57620008fd620008a0565b5b50919050565b60008190508160005260206000209050919050565b60006020601f8301049050919050565b600082821b905092915050565b600060088302620009687fffffffffffffffffffffffffffffffffffffffffffffffffffffffffffffffff8262000929565b62000974868362000929565b95508019841693508086168417925050509392505050565b6000819050919050565b6000819050919050565b6000620009c1620009bb620009b5846200098c565b62000996565b6200098c565b9050919050565b6000819050919050565b620009dd83620009a0565b620009f5620009ec82620009c8565b84845462000936565b825550505050565b600090565b62000a0c620009fd565b62000a19818484620009d2565b505050565b5b8181101562000a415762000a3560008262000a02565b60018101905062000a1f565b5050565b601f82111562000a905762000a5a8162000904565b62000a658462000919565b8101602085101562000a75578190505b62000a8d62000a848562000919565b83018262000a1e565b50505b505050565b600082821c905092915050565b600062000ab56000198460080262000a95565b1980831691505092915050565b600062000ad0838362000aa2565b9150826002028217905092915050565b62000aeb8262000866565b67ffffffffffffffff81111562000b075762000b0662000871565b5b62000b138254620008cf565b62000b2082828562000a45565b600060209050601f83116001811462000b58576000841562000b43578287015190505b62000b4f858262000ac2565b86555062000bbf565b601f19841662000b688662000904565b60005b8281101562000b925784890151825560018201915060208501945060208101905062000b6b565b8683101562000bb2578489015162000bae601f89168262000aa2565b8355505b6001600288020188555050505b505050505050565b61367e8062000bd76000396000f3fe608060405234801561001057600080fd5b50600436106101215760003560e01c80636352211e116100ad578063c630338611610071578063c63033861461031a578063c87b56dd1461034a578063e2d2c3081461037a578063e5326ab1146103aa578063e985e9c5146103c857610121565b80636352211e1461026457806370a082311461029457806395d89b41146102c4578063a22cb465146102e2578063b88d4fde146102fe57610121565b806323b872dd116100f457806323b872dd146101c05780632f39352a146101dc5780633bad0d36146101fa57806342842e0e1461022a5780635c73a0221461024657610121565b806301ffc9a71461012657806306fdde0314610156578063081812fc14610174578063095ea7b3146101a4575b600080fd5b610140600480360381019061013b9190611fc5565b6103f8565b60405161014d919061200d565b60405180910390f35b61015e6104da565b60405161016b91906120b8565b60405180910390f35b61018e60048036038101906101899190612110565b61056c565b60405161019b919061217e565b60405180910390f35b6101be60048036038101906101b991906121c5565b6105b2565b005b6101da60048036038101906101d59190612205565b6106c9565b005b6101e4610729565b6040516101f191906120b8565b60405180910390f35b610214600480360381019061020f9190612110565b6107b7565b60405161022191906120b8565b60405180910390f35b610244600480360381019061023f9190612205565b6108af565b005b61024e6108cf565b60405161025b9190612267565b60405180910390f35b61027e60048036038101906102799190612110565b6109de565b60405161028b919061217e565b60405180910390f35b6102ae60048036038101906102a99190612282565b610a8f565b6040516102bb9190612267565b60405180910390f35b6102cc610b46565b6040516102d991906120b8565b60405180910390f35b6102fc60048036038101906102f791906122db565b610bd8565b005b61031860048036038101906103139190612450565b610bee565b005b610334600480360381019061032f9190612110565b610c50565b60405161034191906120b8565b60405180910390f35b610364600480360381019061035f9190612110565b610d48565b60405161037191906120b8565b60405180910390f35b610394600480360381019061038f9190612110565b610e5a565b6040516103a191906120b8565b60405180910390f35b6103b2610f52565b6040516103bf91906120b8565b60405180910390f35b6103e260048036038101906103dd91906124d3565b610fe0565b6040516103ef919061200d565b60405180910390f35b60007f80ac58cd000000000000000000000000000000000000000000000000000000007bffffffffffffffffffffffffffffffffffffffffffffffffffffffff1916827bffffffffffffffffffffffffffffffffffffffffffffffffffffffff191614806104c357507f5b5e139f000000000000000000000000000000000000000000000000000000007bffffffffffffffffffffffffffffffffffffffffffffffffffffffff1916827bffffffffffffffffffffffffffffffffffffffffffffffffffffffff1916145b806104d357506104d282611074565b5b9050919050565b6060600080546104e990612542565b80601f016020809104026020016040519081016040528092919081815260200182805461051590612542565b80156105625780601f1061053757610100808354040283529160200191610562565b820191906000526020600020905b81548152906001019060200180831161054557829003601f168201915b5050505050905090565b6000610577826110de565b6004600083815260200190815260200160002060009054906101000a900473ffffffffffffffffffffffffffffffffffffffff169050919050565b60006105bd826109de565b90508073ffffffffffffffffffffffffffffffffffffffff168373ffffffffffffffffffffffffffffffffffffffff160361062d576040517f08c379a0000000000000000000000000000000000000000000000000000000008152600401610624906125e5565b60405180910390fd5b8073ffffffffffffffffffffffffffffffffffffffff1661064c611129565b73ffffffffffffffffffffffffffffffffffffffff16148061067b575061067a81610675611129565b610fe0565b5b6106ba576040517f08c379a00000000000000000000000000000000000000000000000000000000081526004016106b190612677565b60405180910390fd5b6106c48383611131565b505050565b6106da6106d4611129565b826111ea565b610719576040517f08c379a000000000000000000000000000000000000000000000000000000000815260040161071090612709565b60405180910390fd5b61072483838361127f565b505050565b6009805461073690612542565b80601f016020809104026020016040519081016040528092919081815260200182805461076290612542565b80156107af5780601f10610784576101008083540402835291602001916107af565b820191906000526020600020905b81548152906001019060200180831161079257829003601f168201915b505050505081565b606060006107eb6107c7846114e5565b6040516020016107d791906127b1565b604051602081830303815290604052611645565b9050600b80549050816107fe9190612802565b9050600b818154811061081457610813612833565b5b90600052602060002001805461082990612542565b80601f016020809104026020016040519081016040528092919081815260200182805461085590612542565b80156108a25780601f10610877576101008083540402835291602001916108a2565b820191906000526020600020905b81548152906001019060200180831161088557829003601f168201915b5050505050915050919050565b6108ca83838360405180602001604052806000815250610bee565b505050565b6000806108dc6007611678565b905060006108e9826107b7565b905060006108f683610c50565b9050600061090384610e5a565b9050600083838360405160200161091c93929190612862565b60405160208183030381529060405290506000600a8585856040516020016109479493929190612977565b6040516020818303038152906040529050600061098c8361096784611686565b604051602001610978929190612b16565b604051602081830303815290604052611686565b90506000816040516020016109a19190612ba7565b60405160208183030381529060405290506109bc338961181d565b6109c6888261183b565b6109d060076118a8565b879850505050505050505090565b6000806002600084815260200190815260200160002060009054906101000a900473ffffffffffffffffffffffffffffffffffffffff169050600073ffffffffffffffffffffffffffffffffffffffff168173ffffffffffffffffffffffffffffffffffffffff1603610a86576040517f08c379a0000000000000000000000000000000000000000000000000000000008152600401610a7d90612c15565b60405180910390fd5b80915050919050565b60008073ffffffffffffffffffffffffffffffffffffffff168273ffffffffffffffffffffffffffffffffffffffff1603610aff576040517f08c379a0000000000000000000000000000000000000000000000000000000008152600401610af690612ca7565b60405180910390fd5b600360008373ffffffffffffffffffffffffffffffffffffffff1673ffffffffffffffffffffffffffffffffffffffff168152602001908152602001600020549050919050565b606060018054610b5590612542565b80601f0160208091040260200160405190810160405280929190818152602001828054610b8190612542565b8015610bce5780601f10610ba357610100808354040283529160200191610bce565b820191906000526020600020905b815481529060010190602001808311610bb157829003601f168201915b5050505050905090565b610bea610be3611129565b83836118be565b5050565b610bff610bf9611129565b836111ea565b610c3e576040517f08c379a0000000000000000000000000000000000000000000000000000000008152600401610c3590612709565b60405180910390fd5b610c4a84848484611a2a565b50505050565b60606000610c84610c60846114e5565b604051602001610c709190612d13565b604051602081830303815290604052611645565b9050600c8054905081610c979190612802565b9050600c8181548110610cad57610cac612833565b5b906000526020600020018054610cc290612542565b80601f0160208091040260200160405190810160405280929190818152602001828054610cee90612542565b8015610d3b5780601f10610d1057610100808354040283529160200191610d3b565b820191906000526020600020905b815481529060010190602001808311610d1e57829003601f168201915b5050505050915050919050565b6060610d53826110de565b6000600660008481526020019081526020016000208054610d7390612542565b80601f0160208091040260200160405190810160405280929190818152602001828054610d9f90612542565b8015610dec5780601f10610dc157610100808354040283529160200191610dec565b820191906000526020600020905b815481529060010190602001808311610dcf57829003601f168201915b505050505090506000610dfd611a86565b90506000815103610e12578192505050610e55565b600082511115610e47578082604051602001610e2f929190612d35565b60405160208183030381529060405292505050610e55565b610e5084611a9d565b925050505b919050565b60606000610e8e610e6a846114e5565b604051602001610e7a9190612da5565b604051602081830303815290604052611645565b9050600d8054905081610ea19190612802565b9050600d8181548110610eb757610eb6612833565b5b906000526020600020018054610ecc90612542565b80601f0160208091040260200160405190810160405280929190818152602001828054610ef890612542565b8015610f455780601f10610f1a57610100808354040283529160200191610f45565b820191906000526020600020905b815481529060010190602001808311610f2857829003601f168201915b5050505050915050919050565b60088054610f5f90612542565b80601f0160208091040260200160405190810160405280929190818152602001828054610f8b90612542565b8015610fd85780601f10610fad57610100808354040283529160200191610fd8565b820191906000526020600020905b815481529060010190602001808311610fbb57829003601f168201915b505050505081565b6000600560008473ffffffffffffffffffffffffffffffffffffffff1673ffffffffffffffffffffffffffffffffffffffff16815260200190815260200160002060008373ffffffffffffffffffffffffffffffffffffffff1673ffffffffffffffffffffffffffffffffffffffff16815260200190815260200160002060009054906101000a900460ff16905092915050565b60007f01ffc9a7000000000000000000000000000000000000000000000000000000007bffffffffffffffffffffffffffffffffffffffffffffffffffffffff1916827bffffffffffffffffffffffffffffffffffffffffffffffffffffffff1916149050919050565b6110e781611b05565b611126576040517f08c379a000000000000000000000000000000000000000000000000000000000815260040161111d90612c15565b60405180910390fd5b50565b600033905090565b816004600083815260200190815260200160002060006101000a81548173ffffffffffffffffffffffffffffffffffffffff021916908373ffffffffffffffffffffffffffffffffffffffff160217905550808273ffffffffffffffffffffffffffffffffffffffff166111a4836109de565b73ffffffffffffffffffffffffffffffffffffffff167f8c5be1e5ebec7d5bd14f71427d1e84f3dd0314c0f7b2291e5b200ac8c7c3b92560405160405180910390a45050565b6000806111f6836109de565b90508073ffffffffffffffffffffffffffffffffffffffff168473ffffffffffffffffffffffffffffffffffffffff16148061123857506112378185610fe0565b5b8061127657508373ffffffffffffffffffffffffffffffffffffffff1661125e8461056c565b73ffffffffffffffffffffffffffffffffffffffff16145b91505092915050565b8273ffffffffffffffffffffffffffffffffffffffff1661129f826109de565b73ffffffffffffffffffffffffffffffffffffffff16146112f5576040517f08c379a00000000000000000000000000000000000000000000000000000000081526004016112ec90612e39565b60405180910390fd5b600073ffffffffffffffffffffffffffffffffffffffff168273ffffffffffffffffffffffffffffffffffffffff1603611364576040517f08c379a000000000000000000000000000000000000000000000000000000000815260040161135b90612ecb565b60405180910390fd5b61136f838383611b71565b61137a600082611131565b6001600360008573ffffffffffffffffffffffffffffffffffffffff1673ffffffffffffffffffffffffffffffffffffffff16815260200190815260200160002060008282546113ca9190612f1a565b925050819055506001600360008473ffffffffffffffffffffffffffffffffffffffff1673ffffffffffffffffffffffffffffffffffffffff16815260200190815260200160002060008282546114219190612f4e565b92505081905550816002600083815260200190815260200160002060006101000a81548173ffffffffffffffffffffffffffffffffffffffff021916908373ffffffffffffffffffffffffffffffffffffffff160217905550808273ffffffffffffffffffffffffffffffffffffffff168473ffffffffffffffffffffffffffffffffffffffff167fddf252ad1be2c89b69c2b068fc378daa952ba7f163c4a11628f55a4df523b3ef60405160405180910390a46114e0838383611b76565b505050565b60606000820361152c576040518060400160405280600181526020017f30000000000000000000000000000000000000000000000000000000000000008152509050611640565b600082905060005b6000821461155e57808061154790612f82565b915050600a826115579190612fca565b9150611534565b60008167ffffffffffffffff81111561157a57611579612325565b5b6040519080825280601f01601f1916602001820160405280156115ac5781602001600182028036833780820191505090505b5090505b60008514611639576001826115c59190612f1a565b9150600a856115d49190612802565b60306115e09190612f4e565b60f81b8183815181106115f6576115f5612833565b5b60200101907effffffffffffffffffffffffffffffffffffffffffffffffffffffffffffff1916908160001a905350600a856116329190612fca565b94506115b0565b8093505050505b919050565b6000816040516020016116589190612ffb565b6040516020818303038152906040528051906020012060001c9050919050565b600081600001549050919050565b6060600082519050600081036116ae5760405180602001604052806000815250915050611818565b600060036002836116bf9190612f4e565b6116c99190612fca565b60046116d59190613012565b905060006020826116e69190612f4e565b67ffffffffffffffff8111156116ff576116fe612325565b5b6040519080825280601f01601f1916602001820160405280156117315781602001600182028036833780820191505090505b5090506000604051806060016040528060408152602001613609604091399050600181016020830160005b868110156117d55760038101905062ffffff818a015116603f8160121c168401518060081b905060ff603f83600c1c1686015116810190508060081b905060ff603f8360061c1686015116810190508060081b905060ff603f831686015116810190508060e01b9050808452600484019350505061175c565b5060038606600181146117ef57600281146117ff5761180a565b613d3d60f01b600283035261180a565b603d60f81b60018303525b508484525050819450505050505b919050565b611837828260405180602001604052806000815250611b7b565b5050565b61184482611b05565b611883576040517f08c379a000000000000000000000000000000000000000000000000000000000815260040161187a906130c6565b60405180910390fd5b806006600084815260200190815260200160002090816118a3919061327d565b505050565b6001816000016000828254019250508190555050565b8173ffffffffffffffffffffffffffffffffffffffff168373ffffffffffffffffffffffffffffffffffffffff160361192c576040517f08c379a00000000000000000000000000000000000000000000000000000000081526004016119239061339b565b60405180910390fd5b80600560008573ffffffffffffffffffffffffffffffffffffffff1673ffffffffffffffffffffffffffffffffffffffff16815260200190815260200160002060008473ffffffffffffffffffffffffffffffffffffffff1673ffffffffffffffffffffffffffffffffffffffff16815260200190815260200160002060006101000a81548160ff0219169083151502179055508173ffffffffffffffffffffffffffffffffffffffff168373ffffffffffffffffffffffffffffffffffffffff167f17307eab39ab6107e8899845ad3d59bd9653f200f220920489ca2b5937696c3183604051611a1d919061200d565b60405180910390a3505050565b611a3584848461127f565b611a4184848484611bd6565b611a80576040517f08c379a0000000000000000000000000000000000000000000000000000000008152600401611a779061342d565b60405180910390fd5b50505050565b606060405180602001604052806000815250905090565b6060611aa8826110de565b6000611ab2611a86565b90506000815111611ad25760405180602001604052806000815250611afd565b80611adc846114e5565b604051602001611aed929190612d35565b6040516020818303038152906040525b915050919050565b60008073ffffffffffffffffffffffffffffffffffffffff166002600084815260200190815260200160002060009054906101000a900473ffffffffffffffffffffffffffffffffffffffff1673ffffffffffffffffffffffffffffffffffffffff1614159050919050565b505050565b505050565b611b858383611d5d565b611b926000848484611bd6565b611bd1576040517f08c379a0000000000000000000000000000000000000000000000000000000008152600401611bc89061342d565b60405180910390fd5b505050565b6000611bf78473ffffffffffffffffffffffffffffffffffffffff16611f36565b15611d50578373ffffffffffffffffffffffffffffffffffffffff1663150b7a02611c20611129565b8786866040518563ffffffff1660e01b8152600401611c4294939291906134a2565b6020604051808303816000875af1925050508015611c7e57506040513d601f19601f82011682018060405250810190611c7b9190613503565b60015b611d00573d8060008114611cae576040519150601f19603f3d011682016040523d82523d6000602084013e611cb3565b606091505b506000815103611cf8576040517f08c379a0000000000000000000000000000000000000000000000000000000008152600401611cef9061342d565b60405180910390fd5b805181602001fd5b63150b7a0260e01b7bffffffffffffffffffffffffffffffffffffffffffffffffffffffff1916817bffffffffffffffffffffffffffffffffffffffffffffffffffffffff191614915050611d55565b600190505b949350505050565b600073ffffffffffffffffffffffffffffffffffffffff168273ffffffffffffffffffffffffffffffffffffffff1603611dcc576040517f08c379a0000000000000000000000000000000000000000000000000000000008152600401611dc39061357c565b60405180910390fd5b611dd581611b05565b15611e15576040517f08c379a0000000000000000000000000000000000000000000000000000000008152600401611e0c906135e8565b60405180910390fd5b611e2160008383611b71565b6001600360008473ffffffffffffffffffffffffffffffffffffffff1673ffffffffffffffffffffffffffffffffffffffff1681526020019081526020016000206000828254611e719190612f4e565b92505081905550816002600083815260200190815260200160002060006101000a81548173ffffffffffffffffffffffffffffffffffffffff021916908373ffffffffffffffffffffffffffffffffffffffff160217905550808273ffffffffffffffffffffffffffffffffffffffff16600073ffffffffffffffffffffffffffffffffffffffff167fddf252ad1be2c89b69c2b068fc378daa952ba7f163c4a11628f55a4df523b3ef60405160405180910390a4611f3260008383611b76565b5050565b6000808273ffffffffffffffffffffffffffffffffffffffff163b119050919050565b6000604051905090565b600080fd5b600080fd5b60007fffffffff0000000000000000000000000000000000000000000000000000000082169050919050565b611fa281611f6d565b8114611fad57600080fd5b50565b600081359050611fbf81611f99565b92915050565b600060208284031215611fdb57611fda611f63565b5b6000611fe984828501611fb0565b91505092915050565b60008115159050919050565b61200781611ff2565b82525050565b60006020820190506120226000830184611ffe565b92915050565b600081519050919050565b600082825260208201905092915050565b60005b83811015612062578082015181840152602081019050612047565b60008484015250505050565b6000601f19601f8301169050919050565b600061208a82612028565b6120948185612033565b93506120a4818560208601612044565b6120ad8161206e565b840191505092915050565b600060208201905081810360008301526120d2818461207f565b905092915050565b6000819050919050565b6120ed816120da565b81146120f857600080fd5b50565b60008135905061210a816120e4565b92915050565b60006020828403121561212657612125611f63565b5b6000612134848285016120fb565b91505092915050565b600073ffffffffffffffffffffffffffffffffffffffff82169050919050565b60006121688261213d565b9050919050565b6121788161215d565b82525050565b6000602082019050612193600083018461216f565b92915050565b6121a28161215d565b81146121ad57600080fd5b50565b6000813590506121bf81612199565b92915050565b600080604083850312156121dc576121db611f63565b5b60006121ea858286016121b0565b92505060206121fb858286016120fb565b9150509250929050565b60008060006060848603121561221e5761221d611f63565b5b600061222c868287016121b0565b935050602061223d868287016121b0565b925050604061224e868287016120fb565b9150509250925092565b612261816120da565b82525050565b600060208201905061227c6000830184612258565b92915050565b60006020828403121561229857612297611f63565b5b60006122a6848285016121b0565b91505092915050565b6122b881611ff2565b81146122c357600080fd5b50565b6000813590506122d5816122af565b92915050565b600080604083850312156122f2576122f1611f63565b5b6000612300858286016121b0565b9250506020612311858286016122c6565b9150509250929050565b600080fd5b600080fd5b7f4e487b7100000000000000000000000000000000000000000000000000000000600052604160045260246000fd5b61235d8261206e565b810181811067ffffffffffffffff8211171561237c5761237b612325565b5b80604052505050565b600061238f611f59565b905061239b8282612354565b919050565b600067ffffffffffffffff8211156123bb576123ba612325565b5b6123c48261206e565b9050602081019050919050565b82818337600083830152505050565b60006123f36123ee846123a0565b612385565b90508281526020810184848401111561240f5761240e612320565b5b61241a8482856123d1565b509392505050565b600082601f8301126124375761243661231b565b5b81356124478482602086016123e0565b91505092915050565b6000806000806080858703121561246a57612469611f63565b5b6000612478878288016121b0565b9450506020612489878288016121b0565b935050604061249a878288016120fb565b925050606085013567ffffffffffffffff8111156124bb576124ba611f68565b5b6124c787828801612422565b91505092959194509250565b600080604083850312156124ea576124e9611f63565b5b60006124f8858286016121b0565b9250506020612509858286016121b0565b9150509250929050565b7f4e487b7100000000000000000000000000000000000000000000000000000000600052602260045260246000fd5b6000600282049050600182168061255a57607f821691505b60208210810361256d5761256c612513565b5b50919050565b7f4552433732313a20617070726f76616c20746f2063757272656e74206f776e6560008201527f7200000000000000000000000000000000000000000000000000000000000000602082015250565b60006125cf602183612033565b91506125da82612573565b604082019050919050565b600060208201905081810360008301526125fe816125c2565b9050919050565b7f4552433732313a20617070726f76652063616c6c6572206973206e6f7420746f60008201527f6b656e206f776e6572206e6f7220617070726f76656420666f7220616c6c0000602082015250565b6000612661603e83612033565b915061266c82612605565b604082019050919050565b6000602082019050818103600083015261269081612654565b9050919050565b7f4552433732313a2063616c6c6572206973206e6f7420746f6b656e206f776e6560008201527f72206e6f7220617070726f766564000000000000000000000000000000000000602082015250565b60006126f3602e83612033565b91506126fe82612697565b604082019050919050565b60006020820190508181036000830152612722816126e6565b9050919050565b600081905092915050565b7f656c656d656e7400000000000000000000000000000000000000000000000000600082015250565b600061276a600783612729565b915061277582612734565b600782019050919050565b600061278b82612028565b6127958185612729565b93506127a5818560208601612044565b80840191505092915050565b60006127bc8261275d565b91506127c88284612780565b915081905092915050565b7f4e487b7100000000000000000000000000000000000000000000000000000000600052601260045260246000fd5b600061280d826120da565b9150612818836120da565b925082612828576128276127d3565b5b828206905092915050565b7f4e487b7100000000000000000000000000000000000000000000000000000000600052603260045260246000fd5b600061286e8286612780565b915061287a8285612780565b91506128868284612780565b9150819050949350505050565b60008190508160005260206000209050919050565b600081546128b581612542565b6128bf8186612729565b945060018216600081146128da57600181146128ef57612922565b60ff1983168652811515820286019350612922565b6128f885612893565b60005b8381101561291a578154818901526001820191506020810190506128fb565b838801955050505b50505092915050565b7f3c2f746578743e3c2f7376673e00000000000000000000000000000000000000600082015250565b6000612961600d83612729565b915061296c8261292b565b600d82019050919050565b600061298382876128a8565b915061298f8286612780565b915061299b8285612780565b91506129a78284612780565b91506129b282612954565b915081905095945050505050565b7f7b226e616d65223a220000000000000000000000000000000000000000000000600082015250565b60006129f6600983612729565b9150612a01826129c0565b600982019050919050565b7f222c20226465736372697074696f6e223a20224120686967686c79206163636c60008201527f61696d656420636f6c6c656374696f6e20457465726e616c2057617272696f7260208201527f73222c2022696d616765223a2022646174613a696d6167652f7376672b786d6c60408201527f3b6261736536342c000000000000000000000000000000000000000000000000606082015250565b6000612ab4606883612729565b9150612abf82612a0c565b606882019050919050565b7f227d000000000000000000000000000000000000000000000000000000000000600082015250565b6000612b00600283612729565b9150612b0b82612aca565b600282019050919050565b6000612b21826129e9565b9150612b2d8285612780565b9150612b3882612aa7565b9150612b448284612780565b9150612b4f82612af3565b91508190509392505050565b7f646174613a6170706c69636174696f6e2f6a736f6e3b6261736536342c000000600082015250565b6000612b91601d83612729565b9150612b9c82612b5b565b601d82019050919050565b6000612bb282612b84565b9150612bbe8284612780565b915081905092915050565b7f4552433732313a20696e76616c696420746f6b656e2049440000000000000000600082015250565b6000612bff601883612033565b9150612c0a82612bc9565b602082019050919050565b60006020820190508181036000830152612c2e81612bf2565b9050919050565b7f4552433732313a2061646472657373207a65726f206973206e6f74206120766160008201527f6c6964206f776e65720000000000000000000000000000000000000000000000602082015250565b6000612c91602983612033565b9150612c9c82612c35565b604082019050919050565b60006020820190508181036000830152612cc081612c84565b9050919050565b7f776561706f6e0000000000000000000000000000000000000000000000000000600082015250565b6000612cfd600683612729565b9150612d0882612cc7565b600682019050919050565b6000612d1e82612cf0565b9150612d2a8284612780565b915081905092915050565b6000612d418285612780565b9150612d4d8284612780565b91508190509392505050565b7f72616e6b00000000000000000000000000000000000000000000000000000000600082015250565b6000612d8f600483612729565b9150612d9a82612d59565b600482019050919050565b6000612db082612d82565b9150612dbc8284612780565b915081905092915050565b7f4552433732313a207472616e736665722066726f6d20696e636f72726563742060008201527f6f776e6572000000000000000000000000000000000000000000000000000000602082015250565b6000612e23602583612033565b9150612e2e82612dc7565b604082019050919050565b60006020820190508181036000830152612e5281612e16565b9050919050565b7f4552433732313a207472616e7366657220746f20746865207a65726f2061646460008201527f7265737300000000000000000000000000000000000000000000000000000000602082015250565b6000612eb5602483612033565b9150612ec082612e59565b604082019050919050565b60006020820190508181036000830152612ee481612ea8565b9050919050565b7f4e487b7100000000000000000000000000000000000000000000000000000000600052601160045260246000fd5b6000612f25826120da565b9150612f30836120da565b9250828203905081811115612f4857612f47612eeb565b5b92915050565b6000612f59826120da565b9150612f64836120da565b9250828201905080821115612f7c57612f7b612eeb565b5b92915050565b6000612f8d826120da565b91507fffffffffffffffffffffffffffffffffffffffffffffffffffffffffffffffff8203612fbf57612fbe612eeb565b5b600182019050919050565b6000612fd5826120da565b9150612fe0836120da565b925082612ff057612fef6127d3565b5b828204905092915050565b60006130078284612780565b915081905092915050565b600061301d826120da565b9150613028836120da565b9250828202613036816120da565b9150828204841483151761304d5761304c612eeb565b5b5092915050565b7f45524337323155524953746f726167653a2055524920736574206f66206e6f6e60008201527f6578697374656e7420746f6b656e000000000000000000000000000000000000602082015250565b60006130b0602e83612033565b91506130bb82613054565b604082019050919050565b600060208201905081810360008301526130df816130a3565b9050919050565b60006020601f8301049050919050565b600082821b905092915050565b6000600883026131337fffffffffffffffffffffffffffffffffffffffffffffffffffffffffffffffff826130f6565b61313d86836130f6565b95508019841693508086168417925050509392505050565b6000819050919050565b600061317a613175613170846120da565b613155565b6120da565b9050919050565b6000819050919050565b6131948361315f565b6131a86131a082613181565b848454613103565b825550505050565b600090565b6131bd6131b0565b6131c881848461318b565b505050565b5b818110156131ec576131e16000826131b5565b6001810190506131ce565b5050565b601f8211156132315761320281612893565b61320b846130e6565b8101602085101561321a578190505b61322e613226856130e6565b8301826131cd565b50505b505050565b600082821c905092915050565b600061325460001984600802613236565b1980831691505092915050565b600061326d8383613243565b9150826002028217905092915050565b61328682612028565b67ffffffffffffffff81111561329f5761329e612325565b5b6132a98254612542565b6132b48282856131f0565b600060209050601f8311600181146132e757600084156132d5578287015190505b6132df8582613261565b865550613347565b601f1984166132f586612893565b60005b8281101561331d578489015182556001820191506020850194506020810190506132f8565b8683101561333a5784890151613336601f891682613243565b8355505b6001600288020188555050505b505050505050565b7f4552433732313a20617070726f766520746f2063616c6c657200000000000000600082015250565b6000613385601983612033565b91506133908261334f565b602082019050919050565b600060208201905081810360008301526133b481613378565b9050919050565b7f4552433732313a207472616e7366657220746f206e6f6e20455243373231526560008201527f63656976657220696d706c656d656e7465720000000000000000000000000000602082015250565b6000613417603283612033565b9150613422826133bb565b604082019050919050565b600060208201905081810360008301526134468161340a565b9050919050565b600081519050919050565b600082825260208201905092915050565b60006134748261344d565b61347e8185613458565b935061348e818560208601612044565b6134978161206e565b840191505092915050565b60006080820190506134b7600083018761216f565b6134c4602083018661216f565b6134d16040830185612258565b81810360608301526134e38184613469565b905095945050505050565b6000815190506134fd81611f99565b92915050565b60006020828403121561351957613518611f63565b5b6000613527848285016134ee565b91505092915050565b7f4552433732313a206d696e7420746f20746865207a65726f2061646472657373600082015250565b6000613566602083612033565b915061357182613530565b602082019050919050565b6000602082019050818103600083015261359581613559565b9050919050565b7f4552433732313a20746f6b656e20616c7265616479206d696e74656400000000600082015250565b60006135d2601c83612033565b91506135dd8261359c565b602082019050919050565b60006020820190508181036000830152613601816135c5565b905091905056fe4142434445464748494a4b4c4d4e4f505152535455565758595a6162636465666768696a6b6c6d6e6f707172737475767778797a303132333435363738392b2fa26469706673582212209aa1190f6b4dddd2c24893e243a5c9a26bc0d38ed84b582a5665ce1280af3fa864736f6c634300081100333c73766720786d6c6e733d27687474703a2f2f7777772e77332e6f72672f323030302f73766727207072657365727665417370656374526174696f3d27784d696e594d696e206d656574272076696577426f783d273020302033353020333530273e3c7374796c653e2e62617365207b2066696c6c3a2077686974653b20666f6e742d66616d696c793a2073657269663b20666f6e742d73697a653a20323470783b207d3c2f7374796c653e3c726563742077696474683d273130302527206865696768743d2731303025272066696c6c3d27626c61636b27202f3e3c7465787420783d273530252720793d273530252720636c6173733d27626173652720646f6d696e616e742d626173656c696e653d276d6964646c652720746578742d616e63686f723d276d6964646c65273e",
  "linkReferences": {},
  "deployedLinkReferences": {}
}